:020000040000FA
:08000000803102288731F02F46
:100016000800640080010131890B0D28003440017D
:10002600E3005F08E5005E08E4004101A001A101CC
:1000360030286430E1006108CE006008E200620802
:10004600CF0063088131F421803140014E0841011F
:10005600A00740014F084101A13D4001640884000A
:10006600650885001200031D39283A281C2841011D
:1000760021084001DF00410120084001DE000800A0
:1000860040019413141394121412131313128E13A3
:100096000E138E120E120D130D12C43000320032E2
:1000A600890B512800320000C43000320032890B1F
:1000B600582800320000C43000320032890B5F2815
:1000C60000320000C43000320032890B662800324C
:1000D6000000C43000320032890B6D280032000067
:1000E600C43000320032890B742800320000F4015B
:1000F600F40A40018E130E138E160E160D130D12F2
:100106008E130E138E160E160D170D1200004001DB
:100116008E130E138E160E160D130D12C4300032EA
:100126000032890B9228003200000130F300730878
:10013600F40704307402031CA128A2287C2840017D
:100146008E130E138E160E120D130D128E130E1322
:100156008E160E120D170D12000040018E130E138F
:100166008E160E120D130D12C43000320032890B9A
:10017600B8280032000028308031CF20803110307E
:100186008031CF20803101308031CF2080310F3057
:100196008031CF2080310800F20040010D130D128E
:1001A6007208F0000730F036890BD628700801393E
:1001B600F100F10CF10C0E0871067F3971068E0004
:1001C6007208F0000630F036890BE628700801390F
:1001D600F100F10EF10DF10D0E087106BF39710631
:1001E6008E007208F0000530F036890BF72870088B
:1001F6000139F100F10EF10D0E087106DF397106B5
:100206008E007208F0000430F036890B072970085A
:100216000139F100F10E0E087106EF3971068E00F4
:100226000330890B1429000040010D17000040011E
:100236000D137208F0000330F036890B1F29700881
:100246000139F100F10CF10C0E0871067F397106C7
:100256008E007208F0000230F036890B2F297008E4
:100266000139F100F10EF10DF10D0E087106BF39DD
:1002760071068E0072360139F000F00EF00D0E0890
:100286007006DF3970068E0072080139F000F00E34
:100296000E087006EF3970068E000330890B51295F
:1002A600000040010D17000040010D13C43000325C
:1002B6000032890B5A29003200000800F200400182
:1002C6000D130D167208F0000730F036890B6829F9
:1002D60070080139F100F10CF10C0E0871067F3936
:1002E60071068E007208F0000630F036890B782908
:1002F60070080139F100F10EF10DF10D0E087106CD
:10030600BF3971068E007208F0000530F036890B91
:10031600892970080139F100F10EF10D0E087106F8
:10032600DF3971068E007208F0000430F036890B52
:10033600992970080139F100F10E0E087106EF399E
:1003460071068E000330890BA629000040010D17A7
:10035600000040010D137208F0000330F036890BDF
:10036600B12970080139F100F10CF10C0E08710683
:100376007F3971068E007208F0000230F036890B64
:10038600C12970080139F100F10EF10DF10D0E08C9
:100396007106BF3971068E0072360139F000F00E13
:1003A600F00D0E087006DF3970068E0072080139EE
:1003B600F000F00E0E087006EF3970068E0003305E
:1003C600890BE329000040010D17000040010D13C1
:1003D6000000C43000320032890BED2900320000E3
:1003E60008004001DD004E0886008701403FD0002E
:1003F600413FD10050088400510885001200253A7B
:10040600031D062A072AAD2A4E08860087010130F9
:10041600810741310318810A4101A201A30140016C
:10042600EC01ED01FF304101A400FF30A5004001C1
:100436004E0886008701403FD000413FD10050085A
:100446008400510885001200643A03192B2A2C2ACD
:100456003D2A4E0886008701403FD000413FD1002B
:1004660050088400510885001200693A031D3C2A91
:100476003D2A782A4E0886008701013081074131DE
:100486000318810A4F088600870101088400850148
:1004960002308107003FD000013FD1005008D5004F
:1004A6005108D600890D893B8909D700D800D900A3
:1004B600DA00DB00DC005508B0005608B10057082A
:1004C600B2005808B3005908B4005A08B5005B08D2
:1004D600B6005C08B7005D088431BC248131400158
:1004E6003108CF003008CE00D02A4E08860087019A
:1004F600403FD000413FD10050088400510885009C
:100506001200253A031D882A892AA22A4E08860047
:1005160087010130810741310318810A2530F00037
:100526000030F1005D08D0005008F2008F315B27E3
:10053600813101304001CE000030CF00D02A4E0874
:10054600860087010130810741310318810ACE01F7
:10055600CF01D02A4E0886008701403FD000413F98
:10056600D10050088400510885000008D200D3014C
:100576005208F0005308F1005D08D4005408F20058
:100586008F315B27813140014E088600870101309B
:10059600810741310318810A9C2A0800F20128309C
:1005A600860000308700473FF000F01FDB2ADC2A78
:1005B600FD2A4001A809A909AA09AB09AC09AD0998
:1005C600AE09AF09A80A031DFB2AA90A031DFB2AC7
:1005D600AA0A031DFB2AAB0A031DFB2AAC0A031D4C
:1005E600FB2AAD0A031DFB2AAE0A031DFB2AAF0A2E
:1005F600F201F20A2030860000308700473FF00003
:10060600F01F062B072B262B4001A009A109A209E2
:10061600A309A409A509A609A709A00A031D262B53
:10062600A10A031D262BA20A031D262BA30A031DBE
:10063600262BA40A031D262BA50A031D262BA60A74
:10064600031D262BA70A40012008210422042304A7
:1006560024042504260427040319322B332B862B66
:10066600F101F10A422BA035A10DA20DA30DA40D97
:10067600A50DA60DA70D0130F0007008F107A71F04
:10068600452B462B362B27082F02031D642B2608E5
:100696002E02031D642B25082D02031D642B24083E
:1006A6002C02031D642B23082B02031D642B220836
:1006B6002A02031D642B21082902031D642B20082E
:1006C6002802031C672B682B782B2008A802210818
:1006D600A93B2208AA3B2308AB3B2408AC3B2508D0
:1006E600AD3B2608AE3B2708AF3BA736A60CA50CAC
:1006F600A40CA30CA20CA10CA00C0130F102031D4A
:10070600852B862B462B720803198A2B8B2BA92B3C
:10071600A809A909AA09AB09AC09AD09AE09AF092F
:10072600A80A031DA92BA90A031DA92BAA0A031DA2
:10073600A92BAB0A031DA92BAC0A031DA92BAD0AD5
:10074600031DA92BAE0A031DA92BAF0A40012808D9
:10075600A0002908A1002A08A2002B08A3002C0843
:10076600A4002D08A5002E08A6002F08A700080043
:10077600F2012030860000308700473FF000F01F6E
:10078600C52BC62BE72B4001A009A109A209A30985
:10079600A409A509A609A709A00A031DE52BA10A14
:1007A600031DE52BA20A031DE52BA30A031DE52B5A
:1007B600A40A031DE52BA50A031DE52BA60A031DA6
:1007C600E52BA70AF201F20A2830860000308700DE
:1007D600473FF000F01FF02BF12B142C4001A80925
:1007E600A909AA09AB09AC09AD09AE09AF09A80A5E
:1007F600031D102CA90A031D102CAA0A031D102C78
:10080600AB0A031D102CAC0A031D102CAD0A031DE8
:10081600102CAE0A031D102CAF0A0130F000700830
:10082600F20673308600003087000830F000003092
:100836001E00F00B1B2C4001200821042204230477
:10084600240425042604270403192A2C2B2C872C80
:10085600F101F10A3A2CA035A10DA20DA30DA40DAC
:10086600A50DA60DA70D0130F0007008F107A71F12
:100876003D2C3E2C2E2CF335F40DF50DF60DF70D13
:10088600F80DF90DFA0D27082F02031D642C260812
:100896002E02031D642C25082D02031D642C24083A
:1008A6002C02031D642C23082B02031D642C220832
:1008B6002A02031D642C21082902031D642C20082A
:1008C6002802031C672C682C792C2008A802210812
:1008D600A93B2208AA3B2308AB3B2408AC3B2508CE
:1008E600AD3B2608AE3B2708AF3B7314A736A60CD4
:1008F600A50CA40CA30CA20CA10CA00C0130F102B7
:10090600031D862C872C3E2C720803198B2C8C2CED
:10091600AA2CF309F409F509F609F709F809F90902
:10092600FA09F30A031DAA2CF40A031DAA2CF50AD8
:10093600031DAA2CF60A031DAA2CF70A031DAA2CCE
:10094600F80A031DAA2CF90A031DAA2CFA0A730831
:100956004001A0007408A1007508A2007608A30053
:100966007708A4007808A5007908A6007A08A700E9
:1009760008004001BD003008C4003108C500320837
:10098600C6003308C7003408C8003508C900360851
:10099600CA003708CB004430860000308700473F46
:1009A600B800B81BD72CD92C0130DA2C0030400106
:1009B600B900BA013908C2003A08C3004208430424
:1009C6000319E62CE72C052DC409C509C609C70974
:1009D600C809C909CA09CB09C40A031D052DC50AD8
:1009E600031D052DC60A031D052DC70A031D052D6A
:1009F600C80A031D052DC90A031D052DCA0A031DB4
:100A0600052DCB0A4101A51B092D0A2D0F2DFD3001
:100A16004001EC05FF30ED0541012508803A400113
:100A2600B80080303802031D1B2D0130410124021D
:100A360003181E2D1F2D252D01304001BE0000304C
:100A4600BF002D2D410125084001BF0041012408AA
:100A56004001BE00410123084001C10041012208B6
:100A66004001C00042084304031D3A2D3B2D3F2D93
:100A76006C1D3E2D3F2D432DFF30C007FF30C13D7D
:100A86001F30CC000030CD004101C701B22DFF3030
:100A96004001CC07FF30CD3D0A30A000A101A201E4
:100AA600A301A401A501A601A7014408A8004508C1
:100AB600A9004608AA004708AB004808AC00490848
:100AC600AD004A08AE004B08AF008231D122843116
:100AD60040012108F4002008F3008E318B26843172
:100AE6007308303E4001B8004C08A83E86008701D6
:100AF60038088100FF30BE07FF30BF3DFF30C0071A
:100B0600FF30C13D0A30A000A101A201A301A4014A
:100B1600A501A601A7014408A8004508A9004608A2
:100B2600AA004708AB004808AC004908AD004A08CF
:100B3600AE004B08AF008331BB238431400120084F
:100B4600C4002108C5002208C6002308C7002408DF
:100B5600C8002508C9002608CA002708CB0040019E
:100B66004D08803AB80080303802031DBC2D013094
:100B76004C02031CBF2DC02DED2D40014408450439
:100B860046044704480449044A044B04031DCC2D7B
:100B9600CD2D4A2D3F08803AB80080303802031D1B
:100BA600D62D01303E020318D92DDA2D4A2D4001EB
:100BB6004108803AB80080303802031DE42D013028
:100BC6004002031CE72DE82DED2D4001EC18EC2D1D
:100BD600ED2D4A2D400142084304031DF32DF42D4B
:100BE600F82D6C1DF72DF82D132EFF30CC07FF3096
:100BF600CD3D42084304031D012E022E072E2B3045
:100C0600BB000030BC000B2E2D30BB000030BC00FA
:100C16003B08B8004C08A83E8600870138088100CA
:100C26004C08A83EB8003808A4004108A6004008B1
:100C3600A5003D088F31AA27843140012508B1005F
:100C46002408B00008008E31A5268631400118150B
:100C56008031432086310C308031CF2086310230FE
:100C66004001EB004530EA00A930890B382EEA0B2B
:100C7600382EEB0B382E003240018D1E432E442EAB
:100C86004C2E07304001EA007D30890B482EEA0BD6
:100C9600482E40018D1A502E512E7B2E0130EE0724
:100CA6000030EF3D0030E6008830E7006F08E900CD
:100CB6006E08E800C8308E31C62686310230400103
:100CC600EA006A08F300C830EB006B08F400013054
:100CD6008F311227863102304001EB004530EA00A1
:100CE600A930890B742EEA0B742EEB0B742E00328E
:100CF6000A3040016E066F04031D822E832EA02E3D
:100D06001730E6008830E700C8308E31C6268631B7
:100D160002304001EA006A08F300C830EB006B08B5
:100D2600F40002308F3112278631A3304001EA00E9
:100D36005530890B9C2EEA0B9C2E143040016E0612
:100D46006F04031DA72EA82EC52E1F30E60088307F
:100D5600E700C8308E31C626863102304001EA00EF
:100D66006A08F300C830EB006B08F40002308F31DC
:100D760012278631A3304001EA005530890BC12E77
:100D8600EA0BC12E1E3040016E066F04031DCC2EE9
:100D9600CD2EEA2E2730E6008830E700C8308E31A7
:100DA600C626863102304001EA006A08F300C830E0
:100DB600EB006B08F40002308F3112278631A33026
:100DC6004001EA005530890BE62EEA0BE62E283064
:100DD60040016E066F04031DF12EF22E0F2F2F30E9
:100DE600E6008830E700C8308E31C62686310230EC
:100DF6004001EA006A08F300C830EB006B08F40013
:100E060002308F3112278631A3304001EA00553077
:100E1600890B0B2FEA0B0B2F323040016E066F0445
:100E2600031D162F172F342F3730E6008830E700C2
:100E3600C8308E31C626863102304001EA006A0883
:100E4600F300C830EB006B08F40002308F31122734
:100E56008631A3304001EA005530890B302FEA0B6A
:100E6600302F3C3040016E066F04031D3B2F3C2F94
:100E7600592F3F30E6008830E700C8308E31C6264D
:100E8600863102304001EA006A08F300C830EB0000
:100E96006B08F40002308F3112278631A3304001EF
:100EA600EA005530890B552FEA0B552F4630400185
:100EB6006E066F04031D602F612F7E2F4730E600FC
:100EC6008830E700C8308E31C626863102304001B0
:100ED600EA006A08F300C830EB006B08F400023041
:100EE6008F3112278631A3304001EA005530890B35
:100EF6007A2FEA0B7A2F503040016E066F04031DDD
:100F0600852F862FA32F4F30E6008830E700C830A4
:100F16008E31C626863102304001EA006A08F300A7
:100F2600C830EB006B08F40002308F31122786318F
:100F3600A3304001EA005530890B9F2FEA0B9F2F03
:100F46005A3040016E066F04031DAA2FAB2FC82F1F
:100F56005730E6008830E700C8308E31C626863125
:100F660002304001EA006A08F300C830EB006B0863
:100F7600F40002308F3112278631A3304001EA0097
:100F86005530890BC42FEA0BC42F643040016E061E
:100F96006F04031DCF2FD02F3F2E0E30E600883072
:100FA600E700C8308E31C626863102304001EA009D
:100FB6006A08F300C830EB006B08F40002308F318A
:100FC60012278631A3304001EA005530890BE92FFC
:100FD600EA0BE92F3F2E803102284001EC01ED019A
:100FE600EE01EF01A0308400003085003C308031F6
:100FF6000C20873140018631262E4E3475346D34EF
:101006004C3469346D346F346E3465347334203443
:1010160025346434003450346134633461347334B9
:101026002034313430340034503461346334613424
:1010360073342034313400345034613463346134D1
:1010460073342034323400345034613463346134C0
:1010560073342034333400345034613463346134AF
:10106600733420343434003450346134633461349E
:10107600733420343534003450346134633461348D
:10108600733420343634003450346134633461347C
:10109600733420343734003450346134633461346B
:1010A600733420343834003450346134633461345A
:0810B600733420343934003496
:101CE400F4007408F2007208F3007C2E0130F20054
:101CF4007208F4077408860087010108031D832E07
:101D0400842E782E73087402F000F101F01BF103A5
:101D140008007408803AF50080307502031D942E83
:101D2400013073020318972E982EA42E7309F50020
:101D34007409F600F50A0319F60A7508F300760823
:101D4400F400A42E08004001980199019A01103072
:101D54009200A0309300043094007E01CE01C301B0
:101D6400B8010430CF000430BA00C501D0013730C7
:101D7400BB00FF30C600FF30D1003F30BC00FF3055
:101D8400C700FF30D20008004101DF006830FD00C9
:101D94007D08DE005F08FD007D08E000E101E2014E
:101DA400E301E40140016708DF006608DE00DE307D
:101DB400FD007D08E000E030803112208E314101C9
:101DC40061085F07FD007D08860087018101080026
:101DD4004001A300A101A201022F2008F900FA0189
:101DE4007908F0007A08F1007808FB007B08F2001B
:101DF4008F315B278E3101304001A1070030A23DB5
:101E040021082307F9007908860087010108FA00F0
:101E14007A08A0002008031D102F112FEF2E0800B0
:101E2400F7002C2F7308803EF5007508F800422F48
:101E34007308C03EF5007508F800422F7308943EFD
:101E4400F5007508F800422F7308D43EF5007508B4
:101E5400F800422F7708F500F6017608003A0319D6
:101E6400342F422F7508013A0319142F033A03192A
:101E74001A2F013A0319202F073A0319262F422F4C
:101E840078088031CF208F31522F74088600870163
:101E94000108813161218F310130F5007508F407A3
:101EA4007408860087010108031D592F5A2F472FF4
:101EB4000800720803195F2F602F652F7208031D35
:101EC400642F652F6A2F700880310B208F31A92F62
:101ED4007208033E86008701160001040319732F5C
:101EE400742F912F7208033E86008701403FF30050
:101EF400413FF400720A86008701403FF500413FEC
:101F0400F6007608803AF7007408803A7702031DD9
:101F14008D2F730875020318902F912FA92F700825
:101F2400F300720886008701720A840085010008A4
:101F34000107F40074088600870173088100720A9F
:101F4400860087010130810741310318810A0800A6
:101F54004001AB006C1CAF2FB02FB82F2B08FC0036
:101F64007C08F80024088E31EA268F314001A61B34
:101F7400BC2FBD2FC22F2608AA002508A900C42FF4
:101F8400A901AA01A701A801D82F2030F000003030
:101F9400F10040012B08FC007C08F2008F315B2724
:101FA4008F3101304001A7070030A83D2808803A4E
:101FB400FC002A08803A7C02031DE22F290827022C
:101FC400031CE52FE62FC72F40016C18EA2FEB2FD7
:101FD400F32F2B08FC007C08F80024088E31EA2635
:101FE4008F31400124088E3172268F314001290837
:0C1FF4007007A4002A08713DA500080039
:020000040001F9
:04000E00ED3FE73F9C
:04001400FF3FFF3F6C
:00000001FF
